:020000040800F2
:1000000000000220610600088D0400088F0400082B
:100010009104000893040008950400080000000003
:10002000000000000000000000000000970400082D
:1000300099040008000000009B0400089D040008CB
:10004000B1060008B1060008B1060008B1060008B4
:10005000B1060008B1060008B1060008B1060008A4
:10006000B1060008B1060008B1060008B106000894
:10007000B1060008B1060008B1060008B106000884
:10008000B1060008B1060008B1060008B106000874
:10009000B1060008B1060008B1060008B106000864
:1000A000B1060008B1060008B1060008B106000854
:1000B000B1060008B1060008B1060008B106000844
:1000C000B1060008B1060008B1060008B106000834
:1000D000B1060008B1060008B1060008B106000824
:1000E000B1060008B1060008B1060008B106000814
:1000F000B1060008B1060008B1060008B106000804
:10010000B1060008B1060008B1060008B1060008F3
:10011000B1060008B1060008B1060008B1060008E3
:10012000B1060008B1060008B1060008B1060008D3
:10013000B1060008B1060008B1060008B1060008C3
:10014000B1060008B1060008B1060008B1060008B3
:10015000B1060008B1060008B1060008B1060008A3
:10016000B1060008B1060008B1060008B106000893
:10017000B1060008B1060008B1060008B106000883
:10018000B1060008B1060008B1060008B106000873
:10019000B106000800000000B1060008B106000822
:1001A000B1060008B1060008B1060008B106000853
:1001B000B1060008B1060008B1060008B106000843
:1001C000B1060008B1060008B1060008B106000833
:0801D000B1060008B1060008A9
:1001D80010B5054C237833B9044B13B10448AFF379
:1001E80000800123237010BD0400002000000000DF
:1001F800FC06000808B5034B1BB103490348AFF3DD
:10020800008008BD0000000008000020FC0600086F
:1002180010B582B0364A136823F00F0343F0040385
:100228001360334B1B6803F00F03042BF9D1314AD9
:10023800D2F8803023F48073C2F8803002F5D032CF
:10024800136843F4807313602B4B1B6813F4806F9F
:10025800FAD0294B5A6822F0FE4242F080425A6096
:10026800D968264A0A4042F4AA4242F03202DA60C9
:10027800DA6842F08072DA601A6842F080721A60B6
:100288001D4B1B6813F0007FFAD01B4A936843F09C
:1002980003039360936823F0F00343F080039360B3
:1002A800154B9B6803F00C030C2BF9D155230193D4
:1002B80002E0019B013B0193019B002BF9D103F163
:1002C800804303F504339A6822F0F0029A609A6832
:1002D80022F4E0629A609A6822F460529A60084CAC
:1002E800204600F0D9F8204600F0E6F802B010BD2C
:1002F8000020024000700040001002400C80FFF90E
:1003080080FE210A00B589B0002302930393049369
:1003180005930693079303F1804303F504331A6E9C
:1003280042F001021A661B6E03F001030193019B60
:100338004FF090402023836202930123039302230A
:10034800049302A900F0BEF809B05DF804FB4FF071
:1003580090414B691A0402F40012DB4303F02003B6
:1003680013438B617047000000B585B0264B1A6EA9
:1003780042F001021A661A6E02F001020392039A11
:100388009A6D42F080529A659B6D03F080530293F8
:10039800029B1E4BD96821F4E0610904090C1C4A30
:1003A8000A43DA60DA68C2F30222C2F10703042BB7
:1003B80028BF04231946131D062B23D9033A4FF0EF
:1003C800FF338B40DB4303F00F0393401B01DBB289
:1003D8000E4A82F823300F4A936843F480439360AF
:1003E800FFF716FF00F01AF8FFF78CFFFFF7AFFFD3
:1003F80000230193019A084B9A42F7DC019B0133D1
:100408000193F7E70022DAE70010024000ED00E070
:100418000003FA05007000403F420F0030B589B074
:100428000024029403940494059406940794134BAF
:10043800DA6C42F00102DA64DA6C02F0010201922D
:10044800019ADA6C42F00202DA64DB6C03F0020310
:100458000093009B4FF09040202383620293012574
:10046800039502A900F02EF88023029303940695C1
:1004780002A9034800F026F809B030BD0010024078
:1004880000040048FEE7FEE7FEE7FEE7FEE77047E8
:100498007047704770470000064BA3FB00239B0979
:1004A800013B4FF0E0225361002393610523136160
:1004B800704700BFD34D6210014B1860704700BFF2
:1004C80000000020F0B40A6892FAA2F212B1B2FA5F
:1004D80082F24EE020224CE08E68856893FAA3F4FD
:1004E800E4B1B4FA84F464004FF0030C0CFA04F499
:1004F80025EA040593FAA3F494B1B4FA84F46400E9
:1005080006FA04F42C4384600D68CE68446824EA33
:10051800050406FB05F52C43446039E02024E2E796
:100528002024ECE720243BE0202446E0202456E069
:100538002024A40006FA04F42C4304624E680568DB
:1005480093FAA3F4002C75D0B4FA84F464004FF045
:10055800030C0CFA04F425EA040493FAA3F3002B21
:100568006AD0B3FA83F35B0006FA03F3234303600C
:1005780001320B6833FA02F460D04FF0010C0CFA28
:1005880002FC1CEA0303F3D04C68013C012CA3D9FC
:100598000E69C56893FAA3F4002CC3D0B4FA84F4A6
:1005A80064004FF0030C0CFA04F425EA040593FAEE
:1005B800A3F4002CB8D0B4FA84F4640006FA04F466
:1005C8002C43C4604C68022CB8D1FF2B14D84E6958
:1005D800056A93FAA3F4002CA8D0B4FA84F4A40012
:1005E8000F2707FA04F425EA040593FAA3F4002C6C
:1005F8009ED0B4FA84F49CE74F69466A1C0A94FAC0
:10060800A4F59DB1B5FA85F5AD004FF00F0C0CFAC5
:1006180005F526EA050594FAA4F44CB1B4FA84F475
:10062800A40007FA04F42C43446287E72025EBE78B
:100638002024F5E7202489E7202394E70020F0BC54
:1006480070470000034AD2F8883043F47003C2F8B8
:100658008830704700ED00E00D488546FFF7F2FF4F
:100668000C480D490D4A002302E0D458C450043305
:10067800C4188C42F9D30A4A0A4C002301E01360DB
:100688000432A242FBD300F011F8FFF76DFEFEE73B
:100698000000022000000020040000201C070008C1
:1006A8000400002020000020FEE7000070B50D4D7A
:1006B8000D4C641BA4100026A64209D10B4D0C4C0E
:1006C80000F018F8641BA4100026A64205D170BDDE
:1006D80055F8043B98470136EEE755F8043B984730
:1006E8000136F2E714070008140700081407000889
:1006F80018070008F8B500BFF8BC08BC9E4670474C
:0C070800F8B500BFF8BC08BC9E46704766
:04071400FD010008DB
:04071800D9010008FB
:04071C000024F400C1
:040000050800066188
:00000001FF
