:020000040800F2
:1000000000000220A10400082104000823040008C5
:100010002504000827040008290400080000000047
:100020000000000000000000000000002B04000899
:100030002D040008000000002F040008310400080F
:10004000F1040008F1040008F1040008F1040008BC
:10005000F1040008F1040008F1040008F1040008AC
:10006000F1040008F1040008F1040008F10400089C
:10007000F1040008F1040008F1040008F10400088C
:10008000F1040008F1040008F1040008F10400087C
:10009000F1040008F1040008F1040008F10400086C
:1000A000F1040008F1040008F1040008F10400085C
:1000B000F1040008F1040008F1040008F10400084C
:1000C000F1040008F1040008F1040008F10400083C
:1000D000F1040008F1040008F1040008F10400082C
:1000E000F1040008F1040008F1040008F10400081C
:1000F000F1040008F1040008F1040008F10400080C
:10010000F1040008F1040008F1040008F1040008FB
:10011000F1040008F1040008F1040008F1040008EB
:10012000F1040008F1040008F1040008F1040008DB
:10013000F1040008F1040008F1040008F1040008CB
:10014000F1040008F1040008F1040008F1040008BB
:10015000F1040008F1040008F1040008F1040008AB
:10016000F1040008F1040008F1040008F10400089B
:10017000F1040008F1040008F1040008F10400088B
:10018000F1040008F1040008F1040008F10400087B
:10019000F104000800000000F1040008F104000868
:1001A000F1040008F1040008F1040008F10400085B
:1001B000F1040008F1040008F1040008F10400084B
:1001C000F1040008F1040008F1040008F10400083B
:0801D000F1040008F10400082D
:1001D80010B5054C237833B9044B13B10448AFF379
:1001E80000800123237010BD0400002000000000DF
:1001F8003C05000808B5034B1BB103490348AFF39E
:10020800008008BD00000000080000203C05000830
:1002180010B582B0364A136823F00F0343F0040385
:100228001360334B1B6803F00F03042BF9D1314AD9
:10023800D2F8803023F48073C2F8803002F5D032CF
:10024800136843F4807313602B4B1B6813F4806F9F
:10025800FAD0294B5A6822F0FE4242F080425A6096
:10026800D968264A0A4042F4AA4242F03202DA60C9
:10027800DA6842F08072DA601A6842F080721A60B6
:100288001D4B1B6813F0007FFAD01B4A936843F09C
:1002980003039360936823F0F00343F080039360B3
:1002A800154B9B6803F00C030C2BF9D155230193D4
:1002B80002E0019B013B0193019B002BF9D103F163
:1002C800804303F504339A6822F0F0029A609A6832
:1002D80022F4E0629A609A6822F460529A60084CAC
:1002E800204600F0A3F8204600F0C6F802B010BD82
:1002F8000020024000700040001002400C80FFF90E
:1003080080FE210A82B0164BDA6C42F00102DA64F0
:10031800DB6C03F001030193019B4FF090431A68D3
:10032800202393FAA3F3BBB1B3FA83F35B00032151
:1003380001FA03F322EA0302202393FAA3F36BB131
:10034800B3FA83F35B00012101FA03F313434FF07F
:100358009042136002B070472023E7E72023F1E7BB
:100368000010024000B583B0274B1A6E42F001021C
:100378001A661A6E02F001020192019A9A6D42F011
:1003880080529A659B6D03F080530093009B1F4B2E
:10039800D96821F4E0610904090C1D4A0A43DA60AE
:1003A800DA68C2F30222C2F10703042B28BF042330
:1003B8001946131D062B24D9033A4FF0FF338B40FF
:1003C800DB4303F00F0393401B01DBB20F4A82F8B3
:1003D8002330104A936843F480439360FFF718FF73
:1003E800FFF790FF4FF090414B691A0402F4001296
:1003F800DB4303F0200313438B61FA2000F026F857
:10040800F0E70022D9E700BF0010024000ED00E04D
:100418000003FA0500700040FEE7FEE7FEE7FEE78E
:10042800FEE770477047704770470000064BA3FB14
:1004380000239B09013B4FF0E022536100239361A5
:1004480005231361704700BFD34D621082B04FF08F
:10045800E0231B690193019BB0F1FF3F00D00130FD
:1004680038B14FF0E0231B6913F4803FF8D001380E
:10047800F6E702B070470000014B1860704700BFF4
:1004880000000020034AD2F8883043F47003C2F811
:100498008830704700ED00E00D488546FFF7F2FF11
:1004A8000C480D490D4A002302E0D458C4500433C7
:1004B800C4188C42F9D30A4A0A4C002301E013609D
:1004C8000432A242FBD300F011F8FFF74BFFFEE71E
:1004D8000000022000000020040000205C05000845
:1004E8000400002020000020FEE7000070B50D4D3C
:1004F8000D4C641BA4100026A64209D10B4D0C4CD0
:1005080000F018F8641BA4100026A64205D170BD9F
:1005180055F8043B98470136EEE755F8043B9847F1
:100528000136F2E754050008540500085405000890
:1005380058050008F8B500BFF8BC08BC9E467047CF
:0C054800F8B500BFF8BC08BC9E46704728
:04055400FD0100089D
:04055800D9010008BD
:04055C000024F40083
:04000005080004A14A
:00000001FF
